8=FIXT.1.1|9=129|35=D|34=1|49=SENDER|52=20190623-05:50:38.415|56=EXEC|1128=7|11=1234|21=1|38=30|40=2|44=30|54=1|55=test|59=0|60=20190623-05:50:05|10=227|